{
  "_format": "hh-sol-artifact-1",
  "contractName": "NFT",
  "sourceName": "contracts/NFT.sol",
  "abi": [
    {
      "inputs": [],
      "stateMutability": "nonpayable",
      "type": "constructor"
    },
    {
      "anonymous": false,
      "inputs": [
        {
          "indexed": true,
          "internalType": "address",
          "name": "owner",
          "type": "address"
        },
        {
          "indexed": true,
          "internalType": "address",
          "name": "approved",
          "type": "address"
        },
        {
          "indexed": true,
          "internalType": "uint256",
          "name": "tokenId",
          "type": "uint256"
        }
      ],
      "name": "Approval",
      "type": "event"
    },
    {
      "anonymous": false,
      "inputs": [
        {
          "indexed": true,
          "internalType": "address",
          "name": "owner",
          "type": "address"
        },
        {
          "indexed": true,
          "internalType": "address",
          "name": "operator",
          "type": "address"
        },
        {
          "indexed": false,
          "internalType": "bool",
          "name": "approved",
          "type": "bool"
        }
      ],
      "name": "ApprovalForAll",
      "type": "event"
    },
    {
      "anonymous": false,
      "inputs": [
        {
          "indexed": false,
          "internalType": "uint256",
          "name": "_fromTokenId",
          "type": "uint256"
        },
        {
          "indexed": false,
          "internalType": "uint256",
          "name": "_toTokenId",
          "type": "uint256"
        }
      ],
      "name": "BatchMetadataUpdate",
      "type": "event"
    },
    {
      "anonymous": false,
      "inputs": [
        {
          "indexed": false,
          "internalType": "uint256",
          "name": "_tokenId",
          "type": "uint256"
        }
      ],
      "name": "MetadataUpdate",
      "type": "event"
    },
    {
      "anonymous": false,
      "inputs": [
        {
          "indexed": true,
          "internalType": "address",
          "name": "previousOwner",
          "type": "address"
        },
        {
          "indexed": true,
          "internalType": "address",
          "name": "newOwner",
          "type": "address"
        }
      ],
      "name": "OwnershipTransferred",
      "type": "event"
    },
    {
      "anonymous": false,
      "inputs": [
        {
          "indexed": true,
          "internalType": "address",
          "name": "from",
          "type": "address"
        },
        {
          "indexed": true,
          "internalType": "address",
          "name": "to",
          "type": "address"
        },
        {
          "indexed": true,
          "internalType": "uint256",
          "name": "tokenId",
          "type": "uint256"
        }
      ],
      "name": "Transfer",
      "type": "event"
    },
    {
      "inputs": [
        {
          "internalType": "address",
          "name": "to",
          "type": "address"
        },
        {
          "internalType": "uint256",
          "name": "tokenId",
          "type": "uint256"
        }
      ],
      "name": "approve",
      "outputs": [],
      "stateMutability": "nonpayable",
      "type": "function"
    },
    {
      "inputs": [
        {
          "internalType": "address",
          "name": "owner",
          "type": "address"
        }
      ],
      "name": "balanceOf",
      "outputs": [
        {
          "internalType": "uint256",
          "name": "",
          "type": "uint256"
        }
      ],
      "stateMutability": "view",
      "type": "function"
    },
    {
      "inputs": [
        {
          "internalType": "uint256",
          "name": "tokenId",
          "type": "uint256"
        }
      ],
      "name": "getApproved",
      "outputs": [
        {
          "internalType": "address",
          "name": "",
          "type": "address"
        }
      ],
      "stateMutability": "view",
      "type": "function"
    },
    {
      "inputs": [
        {
          "internalType": "address",
          "name": "owner",
          "type": "address"
        },
        {
          "internalType": "address",
          "name": "operator",
          "type": "address"
        }
      ],
      "name": "isApprovedForAll",
      "outputs": [
        {
          "internalType": "bool",
          "name": "",
          "type": "bool"
        }
      ],
      "stateMutability": "view",
      "type": "function"
    },
    {
      "inputs": [
        {
          "internalType": "address",
          "name": "recipient",
          "type": "address"
        },
        {
          "internalType": "string",
          "name": "metadataURI",
          "type": "string"
        }
      ],
      "name": "mintPDFToken",
      "outputs": [
        {
          "internalType": "uint256",
          "name": "",
          "type": "uint256"
        }
      ],
      "stateMutability": "nonpayable",
      "type": "function"
    },
    {
      "inputs": [],
      "name": "name",
      "outputs": [
        {
          "internalType": "string",
          "name": "",
          "type": "string"
        }
      ],
      "stateMutability": "view",
      "type": "function"
    },
    {
      "inputs": [],
      "name": "owner",
      "outputs": [
        {
          "internalType": "address",
          "name": "",
          "type": "address"
        }
      ],
      "stateMutability": "view",
      "type": "function"
    },
    {
      "inputs": [
        {
          "internalType": "uint256",
          "name": "tokenId",
          "type": "uint256"
        }
      ],
      "name": "ownerOf",
      "outputs": [
        {
          "internalType": "address",
          "name": "",
          "type": "address"
        }
      ],
      "stateMutability": "view",
      "type": "function"
    },
    {
      "inputs": [],
      "name": "renounceOwnership",
      "outputs": [],
      "stateMutability": "nonpayable",
      "type": "function"
    },
    {
      "inputs": [
        {
          "internalType": "address",
          "name": "from",
          "type": "address"
        },
        {
          "internalType": "address",
          "name": "to",
          "type": "address"
        },
        {
          "internalType": "uint256",
          "name": "tokenId",
          "type": "uint256"
        }
      ],
      "name": "safeTransferFrom",
      "outputs": [],
      "stateMutability": "nonpayable",
      "type": "function"
    },
    {
      "inputs": [
        {
          "internalType": "address",
          "name": "from",
          "type": "address"
        },
        {
          "internalType": "address",
          "name": "to",
          "type": "address"
        },
        {
          "internalType": "uint256",
          "name": "tokenId",
          "type": "uint256"
        },
        {
          "internalType": "bytes",
          "name": "data",
          "type": "bytes"
        }
      ],
      "name": "safeTransferFrom",
      "outputs": [],
      "stateMutability": "nonpayable",
      "type": "function"
    },
    {
      "inputs": [
        {
          "internalType": "address",
          "name": "operator",
          "type": "address"
        },
        {
          "internalType": "bool",
          "name": "approved",
          "type": "bool"
        }
      ],
      "name": "setApprovalForAll",
      "outputs": [],
      "stateMutability": "nonpayable",
      "type": "function"
    },
    {
      "inputs": [
        {
          "internalType": "bytes4",
          "name": "interfaceId",
          "type": "bytes4"
        }
      ],
      "name": "supportsInterface",
      "outputs": [
        {
          "internalType": "bool",
          "name": "",
          "type": "bool"
        }
      ],
      "stateMutability": "view",
      "type": "function"
    },
    {
      "inputs": [],
      "name": "symbol",
      "outputs": [
        {
          "internalType": "string",
          "name": "",
          "type": "string"
        }
      ],
      "stateMutability": "view",
      "type": "function"
    },
    {
      "inputs": [
        {
          "internalType": "uint256",
          "name": "tokenId",
          "type": "uint256"
        }
      ],
      "name": "tokenURI",
      "outputs": [
        {
          "internalType": "string",
          "name": "",
          "type": "string"
        }
      ],
      "stateMutability": "view",
      "type": "function"
    },
    {
      "inputs": [
        {
          "internalType": "address",
          "name": "from",
          "type": "address"
        },
        {
          "internalType": "address",
          "name": "to",
          "type": "address"
        },
        {
          "internalType": "uint256",
          "name": "tokenId",
          "type": "uint256"
        }
      ],
      "name": "transferFrom",
      "outputs": [],
      "stateMutability": "nonpayable",
      "type": "function"
    },
    {
      "inputs": [
        {
          "internalType": "address",
          "name": "newOwner",
          "type": "address"
        }
      ],
      "name": "transferOwnership",
      "outputs": [],
      "stateMutability": "nonpayable",
      "type": "function"
    }
  ],
  "bytecode": "0x60806040523480156200001157600080fd5b506040518060400160405280600881526020017f504446546f6b656e0000000000000000000000000000000000000000000000008152506040518060400160405280600381526020017f5044460000000000000000000000000000000000000000000000000000000000815250816000908051906020019062000096929190620001a6565b508060019080519060200190620000af929190620001a6565b505050620000d2620000c6620000d860201b60201c565b620000e060201b60201c565b620002bb565b600033905090565b6000600760009054906101000a900473ffffffffffffffffffffffffffffffffffffffff16905081600760006101000a81548173ffffffffffffffffffffffffffffffffffffffff021916908373ffffffffffffffffffffffffffffffffffffffff1602179055508173ffffffffffffffffffffffffffffffffffffffff168173ffffffffffffffffffffffffffffffffffffffff167f8be0079c531659141344cd1fd0a4f28419497f9722a3daafe3b4186f6b6457e060405160405180910390a35050565b828054620001b49062000285565b90600052602060002090601f016020900481019282620001d8576000855562000224565b82601f10620001f357805160ff191683800117855562000224565b8280016001018555821562000224579182015b828111156200022357825182559160200191906001019062000206565b5b50905062000233919062000237565b5090565b5b808211156200025257600081600090555060010162000238565b5090565b7f4e487b7100000000000000000000000000000000000000000000000000000000600052602260045260246000fd5b600060028204905060018216806200029e57607f821691505b60208210811415620002b557620002b462000256565b5b50919050565b612d0b80620002cb6000396000f3fe608060405234801561001057600080fd5b506004361061010b5760003560e01c8063715018a6116100a2578063a22cb46511610071578063a22cb465146102b8578063b88d4fde146102d4578063c87b56dd146102f0578063e985e9c514610320578063f2fde38b146103505761010b565b8063715018a6146102425780638459f2ed1461024c5780638da5cb5b1461027c57806395d89b411461029a5761010b565b806323b872dd116100de57806323b872dd146101aa57806342842e0e146101c65780636352211e146101e257806370a08231146102125761010b565b806301ffc9a71461011057806306fdde0314610140578063081812fc1461015e578063095ea7b31461018e575b600080fd5b61012a60048036038101906101259190611ceb565b61036c565b6040516101379190611d33565b60405180910390f35b6101486103cd565b6040516101559190611de7565b60405180910390f35b61017860048036038101906101739190611e3f565b61045f565b6040516101859190611ead565b60405180910390f35b6101a860048036038101906101a39190611ef4565b6104a5565b005b6101c460048036038101906101bf9190611f34565b6105bd565b005b6101e060048036038101906101db9190611f34565b61061d565b005b6101fc60048036038101906101f79190611e3f565b61063d565b6040516102099190611ead565b60405180910390f35b61022c60048036038101906102279190611f87565b6106c4565b6040516102399190611fc3565b60405180910390f35b61024a61077c565b005b61026660048036038101906102619190612113565b610790565b6040516102739190611fc3565b60405180910390f35b6102846107d2565b6040516102919190611ead565b60405180910390f35b6102a26107fc565b6040516102af9190611de7565b60405180910390f35b6102d260048036038101906102cd919061219b565b61088e565b005b6102ee60048036038101906102e9919061227c565b6108a4565b005b61030a60048036038101906103059190611e3f565b610906565b6040516103179190611de7565b60405180910390f35b61033a600480360381019061033591906122ff565b610a19565b6040516103479190611d33565b60405180910390f35b61036a60048036038101906103659190611f87565b610aad565b005b6000634906490660e01b7bffffffffffffffffffffffffffffffffffffffffffffffffffffffff1916827bffffffffffffffffffffffffffffffffffffffffffffffffffffffff191614806103c657506103c582610b31565b5b9050919050565b6060600080546103dc9061236e565b80601f01602080910402602001604051908101604052809291908181526020018280546104089061236e565b80156104555780601f1061042a57610100808354040283529160200191610455565b820191906000526020600020905b81548152906001019060200180831161043857829003601f168201915b5050505050905090565b600061046a82610c13565b6004600083815260200190815260200160002060009054906101000a900473ffffffffffffffffffffffffffffffffffffffff169050919050565b60006104b08261063d565b90508073ffffffffffffffffffffffffffffffffffffffff168373ffffffffffffffffffffffffffffffffffffffff161415610521576040517f08c379a000000000000000000000000000000000000000000000000000000000815260040161051890612412565b60405180910390fd5b8073ffffffffffffffffffffffffffffffffffffffff16610540610c5e565b73ffffffffffffffffffffffffffffffffffffffff16148061056f575061056e81610569610c5e565b610a19565b5b6105ae576040517f08c379a00000000000000000000000000000000000000000000000000000000081526004016105a5906124a4565b60405180910390fd5b6105b88383610c66565b505050565b6105ce6105c8610c5e565b82610d1f565b61060d576040517f08c379a000000000000000000000000000000000000000000000000000000000815260040161060490612536565b60405180910390fd5b610618838383610db4565b505050565b610638838383604051806020016040528060008152506108a4565b505050565b600080610649836110ae565b9050600073ffffffffffffffffffffffffffffffffffffffff168173ffffffffffffffffffffffffffffffffffffffff1614156106bb576040517f08c379a00000000000000000000000000000000000000000000000000000000081526004016106b2906125a2565b60405180910390fd5b80915050919050565b60008073ffffffffffffffffffffffffffffffffffffffff168273ffffffffffffffffffffffffffffffffffffffff161415610735576040517f08c379a000000000000000000000000000000000000000000000000000000000815260040161072c90612634565b60405180910390fd5b600360008373ffffffffffffffffffffffffffffffffffffffff1673ffffffffffffffffffffffffffffffffffffffff168152602001908152602001600020549050919050565b6107846110eb565b61078e6000611169565b565b600061079a6110eb565b60016008546107a99190612683565b6008819055506107bb8360085461122f565b6107c76008548361144d565b600854905092915050565b6000600760009054906101000a900473ffffffffffffffffffffffffffffffffffffffff16905090565b60606001805461080b9061236e565b80601f01602080910402602001604051908101604052809291908181526020018280546108379061236e565b80156108845780601f1061085957610100808354040283529160200191610884565b820191906000526020600020905b81548152906001019060200180831161086757829003601f168201915b5050505050905090565b6108a0610899610c5e565b83836114f8565b5050565b6108b56108af610c5e565b83610d1f565b6108f4576040517f08c379a00000000000000000000000000000000000000000000000000000000081526004016108eb90612536565b60405180910390fd5b61090084848484611665565b50505050565b606061091182610c13565b60006006600084815260200190815260200160002080546109319061236e565b80601f016020809104026020016040519081016040528092919081815260200182805461095d9061236e565b80156109aa5780601f1061097f576101008083540402835291602001916109aa565b820191906000526020600020905b81548152906001019060200180831161098d57829003601f168201915b5050505050905060006109bb6116c1565b90506000815114156109d1578192505050610a14565b600082511115610a065780826040516020016109ee929190612715565b60405160208183030381529060405292505050610a14565b610a0f846116d8565b925050505b919050565b6000600560008473ffffffffffffffffffffffffffffffffffffffff1673ffffffffffffffffffffffffffffffffffffffff16815260200190815260200160002060008373ffffffffffffffffffffffffffffffffffffffff1673ffffffffffffffffffffffffffffffffffffffff16815260200190815260200160002060009054906101000a900460ff16905092915050565b610ab56110eb565b600073ffffffffffffffffffffffffffffffffffffffff168173ffffffffffffffffffffffffffffffffffffffff161415610b25576040517f08c379a0000000000000000000000000000000000000000000000000000000008152600401610b1c906127ab565b60405180910390fd5b610b2e81611169565b50565b60007f80ac58cd000000000000000000000000000000000000000000000000000000007bffffffffffffffffffffffffffffffffffffffffffffffffffffffff1916827bffffffffffffffffffffffffffffffffffffffffffffffffffffffff19161480610bfc57507f5b5e139f000000000000000000000000000000000000000000000000000000007bffffffffffffffffffffffffffffffffffffffffffffffffffffffff1916827bffffffffffffffffffffffffffffffffffffffffffffffffffffffff1916145b80610c0c5750610c0b82611740565b5b9050919050565b610c1c816117aa565b610c5b576040517f08c379a0000000000000000000000000000000000000000000000000000000008152600401610c52906125a2565b60405180910390fd5b50565b600033905090565b816004600083815260200190815260200160002060006101000a81548173ffffffffffffffffffffffffffffffffffffffff021916908373ffffffffffffffffffffffffffffffffffffffff160217905550808273ffffffffffffffffffffffffffffffffffffffff16610cd98361063d565b73ffffffffffffffffffffffffffffffffffffffff167f8c5be1e5ebec7d5bd14f71427d1e84f3dd0314c0f7b2291e5b200ac8c7c3b92560405160405180910390a45050565b600080610d2b8361063d565b90508073ffffffffffffffffffffffffffffffffffffffff168473ffffffffffffffffffffffffffffffffffffffff161480610d6d5750610d6c8185610a19565b5b80610dab57508373ffffffffffffffffffffffffffffffffffffffff16610d938461045f565b73ffffffffffffffffffffffffffffffffffffffff16145b91505092915050565b8273ffffffffffffffffffffffffffffffffffffffff16610dd48261063d565b73ffffffffffffffffffffffffffffffffffffffff1614610e2a576040517f08c379a0000000000000000000000000000000000000000000000000000000008152600401610e219061283d565b60405180910390fd5b600073ffffffffffffffffffffffffffffffffffffffff168273ffffffffffffffffffffffffffffffffffffffff161415610e9a576040517f08c379a0000000000000000000000000000000000000000000000000000000008152600401610e91906128cf565b60405180910390fd5b610ea783838360016117eb565b8273ffffffffffffffffffffffffffffffffffffffff16610ec78261063d565b73ffffffffffffffffffffffffffffffffffffffff1614610f1d576040517f08c379a0000000000000000000000000000000000000000000000000000000008152600401610f149061283d565b60405180910390fd5b6004600082815260200190815260200160002060006101000a81549073ffffffffffffffffffffffffffffffffffffffff02191690556001600360008573ffffffffffffffffffffffffffffffffffffffff1673ffffffffffffffffffffffffffffffffffffffff168152602001908152602001600020600082825403925050819055506001600360008473ffffffffffffffffffffffffffffffffffffffff1673ffffffffffffffffffffffffffffffffffffffff16815260200190815260200160002060008282540192505081905550816002600083815260200190815260200160002060006101000a81548173ffffffffffffffffffffffffffffffffffffffff021916908373ffffffffffffffffffffffffffffffffffffffff160217905550808273ffffffffffffffffffffffffffffffffffffffff168473ffffffffffffffffffffffffffffffffffffffff167fddf252ad1be2c89b69c2b068fc378daa952ba7f163c4a11628f55a4df523b3ef60405160405180910390a46110a983838360016117f1565b505050565b60006002600083815260200190815260200160002060009054906101000a900473ffffffffffffffffffffffffffffffffffffffff169050919050565b6110f3610c5e565b73ffffffffffffffffffffffffffffffffffffffff166111116107d2565b73ffffffffffffffffffffffffffffffffffffffff1614611167576040517f08c379a000000000000000000000000000000000000000000000000000000000815260040161115e9061293b565b60405180910390fd5b565b6000600760009054906101000a900473ffffffffffffffffffffffffffffffffffffffff16905081600760006101000a81548173ffffffffffffffffffffffffffffffffffffffff021916908373ffffffffffffffffffffffffffffffffffffffff1602179055508173ffffffffffffffffffffffffffffffffffffffff168173ffffffffffffffffffffffffffffffffffffffff167f8be0079c531659141344cd1fd0a4f28419497f9722a3daafe3b4186f6b6457e060405160405180910390a35050565b600073ffffffffffffffffffffffffffffffffffffffff168273ffffffffffffffffffffffffffffffffffffffff16141561129f576040517f08c379a0000000000000000000000000000000000000000000000000000000008152600401611296906129a7565b60405180910390fd5b6112a8816117aa565b156112e8576040517f08c379a00000000000000000000000000000000000000000000000000000000081526004016112df90612a13565b60405180910390fd5b6112f66000838360016117eb565b6112ff816117aa565b1561133f576040517f08c379a000000000000000000000000000000000000000000000000000000000815260040161133690612a13565b60405180910390fd5b6001600360008473ffffffffffffffffffffffffffffffffffffffff1673ffffffffffffffffffffffffffffffffffffffff16815260200190815260200160002060008282540192505081905550816002600083815260200190815260200160002060006101000a81548173ffffffffffffffffffffffffffffffffffffffff021916908373ffffffffffffffffffffffffffffffffffffffff160217905550808273ffffffffffffffffffffffffffffffffffffffff16600073ffffffffffffffffffffffffffffffffffffffff167fddf252ad1be2c89b69c2b068fc378daa952ba7f163c4a11628f55a4df523b3ef60405160405180910390a46114496000838360016117f1565b5050565b611456826117aa565b611495576040517f08c379a000000000000000000000000000000000000000000000000000000000815260040161148c90612aa5565b60405180910390fd5b806006600084815260200190815260200160002090805190602001906114bc929190611bdc565b507ff8e1a15aba9398e019f0b49df1a4fde98ee17ae345cb5f6b5e2c27f5033e8ce7826040516114ec9190611fc3565b60405180910390a15050565b8173ffffffffffffffffffffffffffffffffffffffff168373ffffffffffffffffffffffffffffffffffffffff161415611567576040517f08c379a000000000000000000000000000000000000000000000000000000000815260040161155e90612b11565b60405180910390fd5b80600560008573ffffffffffffffffffffffffffffffffffffffff1673ffffffffffffffffffffffffffffffffffffffff16815260200190815260200160002060008473ffffffffffffffffffffffffffffffffffffffff1673ffffffffffffffffffffffffffffffffffffffff16815260200190815260200160002060006101000a81548160ff0219169083151502179055508173ffffffffffffffffffffffffffffffffffffffff168373ffffffffffffffffffffffffffffffffffffffff167f17307eab39ab6107e8899845ad3d59bd9653f200f220920489ca2b5937696c31836040516116589190611d33565b60405180910390a3505050565b611670848484610db4565b61167c848484846117f7565b6116bb576040517f08c379a00000000000000000000000000000000000000000000000000000000081526004016116b290612ba3565b60405180910390fd5b50505050565b606060405180602001604052806000815250905090565b60606116e382610c13565b60006116ed6116c1565b9050600081511161170d5760405180602001604052806000815250611738565b806117178461198e565b604051602001611728929190612715565b6040516020818303038152906040525b915050919050565b60007f01ffc9a7000000000000000000000000000000000000000000000000000000007bffffffffffffffffffffffffffffffffffffffffffffffffffffffff1916827bffffffffffffffffffffffffffffffffffffffffffffffffffffffff1916149050919050565b60008073ffffffffffffffffffffffffffffffffffffffff166117cc836110ae565b73ffffffffffffffffffffffffffffffffffffffff1614159050919050565b50505050565b50505050565b60006118188473ffffffffffffffffffffffffffffffffffffffff16611a66565b15611981578373ffffffffffffffffffffffffffffffffffffffff1663150b7a02611841610c5e565b8786866040518563ffffffff1660e01b81526004016118639493929190612c18565b602060405180830381600087803b15801561187d57600080fd5b505af19250505080156118ae57506040513d601f19601f820116820180604052508101906118ab9190612c79565b60015b611931573d80600081146118de576040519150601f19603f3d011682016040523d82523d6000602084013e6118e3565b606091505b50600081511415611929576040517f08c379a000000000000000000000000000000000000000000000000000000000815260040161192090612ba3565b60405180910390fd5b805181602001fd5b63150b7a0260e01b7bffffffffffffffffffffffffffffffffffffffffffffffffffffffff1916817bffffffffffffffffffffffffffffffffffffffffffffffffffffffff191614915050611986565b600190505b949350505050565b60606000600161199d84611a89565b01905060008167ffffffffffffffff8111156119bc576119bb611fe8565b5b6040519080825280601f01601f1916602001820160405280156119ee5781602001600182028036833780820191505090505b509050600082602001820190505b600115611a5b578080600190039150507f3031323334353637383961626364656600000000000000000000000000000000600a86061a8153600a8581611a4557611a44612ca6565b5b0494506000851415611a5657611a5b565b6119fc565b819350505050919050565b6000808273ffffffffffffffffffffffffffffffffffffffff163b119050919050565b600080600090507a184f03e93ff9f4daa797ed6e38ed64bf6a1f0100000000000000008310611ae7577a184f03e93ff9f4daa797ed6e38ed64bf6a1f0100000000000000008381611add57611adc612ca6565b5b0492506040810190505b6d04ee2d6d415b85acef81000000008310611b24576d04ee2d6d415b85acef81000000008381611b1a57611b19612ca6565b5b0492506020810190505b662386f26fc100008310611b5357662386f26fc100008381611b4957611b48612ca6565b5b0492506010810190505b6305f5e1008310611b7c576305f5e1008381611b7257611b71612ca6565b5b0492506008810190505b6127108310611ba1576127108381611b9757611b96612ca6565b5b0492506004810190505b60648310611bc45760648381611bba57611bb9612ca6565b5b0492506002810190505b600a8310611bd3576001810190505b80915050919050565b828054611be89061236e565b90600052602060002090601f016020900481019282611c0a5760008555611c51565b82601f10611c2357805160ff1916838001178555611c51565b82800160010185558215611c51579182015b82811115611c50578251825591602001919060010190611c35565b5b509050611c5e9190611c62565b5090565b5b80821115611c7b576000816000905550600101611c63565b5090565b6000604051905090565b600080fd5b600080fd5b60007fffffffff0000000000000000000000000000000000000000000000000000000082169050919050565b611cc881611c93565b8114611cd357600080fd5b50565b600081359050611ce581611cbf565b92915050565b600060208284031215611d0157611d00611c89565b5b6000611d0f84828501611cd6565b91505092915050565b60008115159050919050565b611d2d81611d18565b82525050565b6000602082019050611d486000830184611d24565b92915050565b600081519050919050565b600082825260208201905092915050565b60005b83811015611d88578082015181840152602081019050611d6d565b83811115611d97576000848401525b50505050565b6000601f19601f8301169050919050565b6000611db982611d4e565b611dc38185611d59565b9350611dd3818560208601611d6a565b611ddc81611d9d565b840191505092915050565b60006020820190508181036000830152611e018184611dae565b905092915050565b6000819050919050565b611e1c81611e09565b8114611e2757600080fd5b50565b600081359050611e3981611e13565b92915050565b600060208284031215611e5557611e54611c89565b5b6000611e6384828501611e2a565b91505092915050565b600073ffffffffffffffffffffffffffffffffffffffff82169050919050565b6000611e9782611e6c565b9050919050565b611ea781611e8c565b82525050565b6000602082019050611ec26000830184611e9e565b92915050565b611ed181611e8c565b8114611edc57600080fd5b50565b600081359050611eee81611ec8565b92915050565b60008060408385031215611f0b57611f0a611c89565b5b6000611f1985828601611edf565b9250506020611f2a85828601611e2a565b9150509250929050565b600080600060608486031215611f4d57611f4c611c89565b5b6000611f5b86828701611edf565b9350506020611f6c86828701611edf565b9250506040611f7d86828701611e2a565b9150509250925092565b600060208284031215611f9d57611f9c611c89565b5b6000611fab84828501611edf565b91505092915050565b611fbd81611e09565b82525050565b6000602082019050611fd86000830184611fb4565b92915050565b600080fd5b600080fd5b7f4e487b7100000000000000000000000000000000000000000000000000000000600052604160045260246000fd5b61202082611d9d565b810181811067ffffffffffffffff8211171561203f5761203e611fe8565b5b80604052505050565b6000612052611c7f565b905061205e8282612017565b919050565b600067ffffffffffffffff82111561207e5761207d611fe8565b5b61208782611d9d565b9050602081019050919050565b82818337600083830152505050565b60006120b66120b184612063565b612048565b9050828152602081018484840111156120d2576120d1611fe3565b5b6120dd848285612094565b509392505050565b600082601f8301126120fa576120f9611fde565b5b813561210a8482602086016120a3565b91505092915050565b6000806040838503121561212a57612129611c89565b5b600061213885828601611edf565b925050602083013567ffffffffffffffff81111561215957612158611c8e565b5b612165858286016120e5565b9150509250929050565b61217881611d18565b811461218357600080fd5b50565b6000813590506121958161216f565b92915050565b600080604083850312156121b2576121b1611c89565b5b60006121c085828601611edf565b92505060206121d185828601612186565b9150509250929050565b600067ffffffffffffffff8211156121f6576121f5611fe8565b5b6121ff82611d9d565b9050602081019050919050565b600061221f61221a846121db565b612048565b90508281526020810184848401111561223b5761223a611fe3565b5b612246848285612094565b509392505050565b600082601f83011261226357612262611fde565b5b813561227384826020860161220c565b91505092915050565b6000806000806080858703121561229657612295611c89565b5b60006122a487828801611edf565b94505060206122b587828801611edf565b93505060406122c687828801611e2a565b925050606085013567ffffffffffffffff8111156122e7576122e6611c8e565b5b6122f38782880161224e565b91505092959194509250565b6000806040838503121561231657612315611c89565b5b600061232485828601611edf565b925050602061233585828601611edf565b9150509250929050565b7f4e487b7100000000000000000000000000000000000000000000000000000000600052602260045260246000fd5b6000600282049050600182168061238657607f821691505b6020821081141561239a5761239961233f565b5b50919050565b7f4552433732313a20617070726f76616c20746f2063757272656e74206f776e6560008201527f7200000000000000000000000000000000000000000000000000000000000000602082015250565b60006123fc602183611d59565b9150612407826123a0565b604082019050919050565b6000602082019050818103600083015261242b816123ef565b9050919050565b7f4552433732313a20617070726f76652063616c6c6572206973206e6f7420746f60008201527f6b656e206f776e6572206f7220617070726f76656420666f7220616c6c000000602082015250565b600061248e603d83611d59565b915061249982612432565b604082019050919050565b600060208201905081810360008301526124bd81612481565b9050919050565b7f4552433732313a2063616c6c6572206973206e6f7420746f6b656e206f776e6560008201527f72206f7220617070726f76656400000000000000000000000000000000000000602082015250565b6000612520602d83611d59565b915061252b826124c4565b604082019050919050565b6000602082019050818103600083015261254f81612513565b9050919050565b7f4552433732313a20696e76616c696420746f6b656e2049440000000000000000600082015250565b600061258c601883611d59565b915061259782612556565b602082019050919050565b600060208201905081810360008301526125bb8161257f565b9050919050565b7f4552433732313a2061646472657373207a65726f206973206e6f74206120766160008201527f6c6964206f776e65720000000000000000000000000000000000000000000000602082015250565b600061261e602983611d59565b9150612629826125c2565b604082019050919050565b6000602082019050818103600083015261264d81612611565b9050919050565b7f4e487b7100000000000000000000000000000000000000000000000000000000600052601160045260246000fd5b600061268e82611e09565b915061269983611e09565b9250827fffffffffffffffffffffffffffffffffffffffffffffffffffffffffffffffff038211156126ce576126cd612654565b5b828201905092915050565b600081905092915050565b60006126ef82611d4e565b6126f981856126d9565b9350612709818560208601611d6a565b80840191505092915050565b600061272182856126e4565b915061272d82846126e4565b91508190509392505050565b7f4f776e61626c653a206e6577206f776e657220697320746865207a65726f206160008201527f6464726573730000000000000000000000000000000000000000000000000000602082015250565b6000612795602683611d59565b91506127a082612739565b604082019050919050565b600060208201905081810360008301526127c481612788565b9050919050565b7f4552433732313a207472616e736665722066726f6d20696e636f72726563742060008201527f6f776e6572000000000000000000000000000000000000000000000000000000602082015250565b6000612827602583611d59565b9150612832826127cb565b604082019050919050565b600060208201905081810360008301526128568161281a565b9050919050565b7f4552433732313a207472616e7366657220746f20746865207a65726f2061646460008201527f7265737300000000000000000000000000000000000000000000000000000000602082015250565b60006128b9602483611d59565b91506128c48261285d565b604082019050919050565b600060208201905081810360008301526128e8816128ac565b9050919050565b7f4f776e61626c653a2063616c6c6572206973206e6f7420746865206f776e6572600082015250565b6000612925602083611d59565b9150612930826128ef565b602082019050919050565b6000602082019050818103600083015261295481612918565b9050919050565b7f4552433732313a206d696e7420746f20746865207a65726f2061646472657373600082015250565b6000612991602083611d59565b915061299c8261295b565b602082019050919050565b600060208201905081810360008301526129c081612984565b9050919050565b7f4552433732313a20746f6b656e20616c7265616479206d696e74656400000000600082015250565b60006129fd601c83611d59565b9150612a08826129c7565b602082019050919050565b60006020820190508181036000830152612a2c816129f0565b9050919050565b7f45524337323155524953746f726167653a2055524920736574206f66206e6f6e60008201527f6578697374656e7420746f6b656e000000000000000000000000000000000000602082015250565b6000612a8f602e83611d59565b9150612a9a82612a33565b604082019050919050565b60006020820190508181036000830152612abe81612a82565b9050919050565b7f4552433732313a20617070726f766520746f2063616c6c657200000000000000600082015250565b6000612afb601983611d59565b9150612b0682612ac5565b602082019050919050565b60006020820190508181036000830152612b2a81612aee565b9050919050565b7f4552433732313a207472616e7366657220746f206e6f6e20455243373231526560008201527f63656976657220696d706c656d656e7465720000000000000000000000000000602082015250565b6000612b8d603283611d59565b9150612b9882612b31565b604082019050919050565b60006020820190508181036000830152612bbc81612b80565b9050919050565b600081519050919050565b600082825260208201905092915050565b6000612bea82612bc3565b612bf48185612bce565b9350612c04818560208601611d6a565b612c0d81611d9d565b840191505092915050565b6000608082019050612c2d6000830187611e9e565b612c3a6020830186611e9e565b612c476040830185611fb4565b8181036060830152612c598184612bdf565b905095945050505050565b600081519050612c7381611cbf565b92915050565b600060208284031215612c8f57612c8e611c89565b5b6000612c9d84828501612c64565b91505092915050565b7f4e487b7100000000000000000000000000000000000000000000000000000000600052601260045260246000fdfea2646970667358221220664eef7af3c884c93907c44723bae955402f45edd7b2de70b3917cfbde65e3f864736f6c63430008080033",
  "linkReferences": {},
  "deployedLinkReferences": {}
}