{
  "_format": "hh-sol-artifact-1",
  "contractName": "Upload",
  "sourceName": "contracts/Upload.sol",
  "abi": [
    {
      "inputs": [
        {
          "internalType": "address",
          "name": "_user",
          "type": "address"
        },
        {
          "internalType": "string",
          "name": "_url",
          "type": "string"
        },
        {
          "internalType": "string",
          "name": "_format",
          "type": "string"
        }
      ],
      "name": "add",
      "outputs": [],
      "stateMutability": "nonpayable",
      "type": "function"
    },
    {
      "inputs": [
        {
          "internalType": "address",
          "name": "_user",
          "type": "address"
        }
      ],
      "name": "allow",
      "outputs": [],
      "stateMutability": "nonpayable",
      "type": "function"
    },
    {
      "inputs": [
        {
          "internalType": "address",
          "name": "_user",
          "type": "address"
        }
      ],
      "name": "disallow",
      "outputs": [],
      "stateMutability": "nonpayable",
      "type": "function"
    },
    {
      "inputs": [
        {
          "internalType": "address",
          "name": "_user",
          "type": "address"
        }
      ],
      "name": "display",
      "outputs": [
        {
          "components": [
            {
              "internalType": "string",
              "name": "url",
              "type": "string"
            },
            {
              "internalType": "string",
              "name": "format",
              "type": "string"
            }
          ],
          "internalType": "struct Upload.File[]",
          "name": "",
          "type": "tuple[]"
        }
      ],
      "stateMutability": "view",
      "type": "function"
    },
    {
      "inputs": [],
      "name": "shareAccess",
      "outputs": [
        {
          "components": [
            {
              "internalType": "address",
              "name": "user",
              "type": "address"
            },
            {
              "internalType": "bool",
              "name": "access",
              "type": "bool"
            }
          ],
          "internalType": "struct Upload.Access[]",
          "name": "",
          "type": "tuple[]"
        }
      ],
      "stateMutability": "view",
      "type": "function"
    }
  ],
  "bytecode": "0x608060405234801561001057600080fd5b506113a0806100206000396000f3fe608060405234801561001057600080fd5b50600436106100575760003560e01c806346bc7fd91461005c578063a9ed9cb814610078578063bc8bef8114610094578063eb39113f146100b2578063ff9913e8146100e2575b600080fd5b61007660048036038101906100719190610e49565b6100fe565b005b610092600480360381019061008d9190610ed4565b6101bb565b005b61009c6103de565b6040516100a99190611009565b60405180910390f35b6100cc60048036038101906100c79190610ed4565b6104e7565b6040516100d991906111b9565b60405180910390f35b6100fc60048036038101906100f79190610ed4565b6107a7565b005b6000808473ffffffffffffffffffffffffffffffffffffffff1673ffffffffffffffffffffffffffffffffffffffff16815260200190815260200160002060405180604001604052808481526020018381525090806001815401808255809150506001900390600052602060002090600202016000909190919091506000820151816000019080519060200190610196929190610bee565b5060208201518160010190805190602001906101b3929190610bee565b505050505050565b6000600160003373ffffffffffffffffffffffffffffffffffffffff1673ffffffffffffffffffffffffffffffffffffffff16815260200190815260200160002060008373ffffffffffffffffffffffffffffffffffffffff1673ffffffffffffffffffffffffffffffffffffffff16815260200190815260200160002060006101000a81548160ff02191690831515021790555060005b600260003373ffffffffffffffffffffffffffffffffffffffff1673ffffffffffffffffffffffffffffffffffffffff168152602001908152602001600020805490508110156103da578173ffffffffffffffffffffffffffffffffffffffff16600260003373ffffffffffffffffffffffffffffffffffffffff1673ffffffffffffffffffffffffffffffffffffffff1681526020019081526020016000208281548110610305576103046111db565b5b9060005260206000200160000160009054906101000a900473ffffffffffffffffffffffffffffffffffffffff1673ffffffffffffffffffffffffffffffffffffffff1614156103c7576000600260003373ffffffffffffffffffffffffffffffffffffffff1673ffffffffffffffffffffffffffffffffffffffff16815260200190815260200160002082815481106103a2576103a16111db565b5b9060005260206000200160000160146101000a81548160ff0219169083151502179055505b80806103d290611243565b915050610253565b5050565b6060600260003373ffffffffffffffffffffffffffffffffffffffff1673ffffffffffffffffffffffffffffffffffffffff168152602001908152602001600020805480602002602001604051908101604052809291908181526020016000905b828210156104de578382906000526020600020016040518060400160405290816000820160009054906101000a900473ffffffffffffffffffffffffffffffffffffffff1673ffffffffffffffffffffffffffffffffffffffff1673ffffffffffffffffffffffffffffffffffffffff1681526020016000820160149054906101000a900460ff1615151515815250508152602001906001019061043f565b50505050905090565b60603373ffffffffffffffffffffffffffffffffffffffff168273ffffffffffffffffffffffffffffffffffffffff1614806105a95750600160008373ffffffffffffffffffffffffffffffffffffffff1673ffffffffffffffffffffffffffffffffffffffff16815260200190815260200160002060003373ffffffffffffffffffffffffffffffffffffffff1673ffffffffffffffffffffffffffffffffffffffff16815260200190815260200160002060009054906101000a900460ff165b6105e8576040517f08c379a00000000000000000000000000000000000000000000000000000000081526004016105df906112e9565b60405180910390fd5b6000808373ffffffffffffffffffffffffffffffffffffffff1673ffffffffffffffffffffffffffffffffffffffff168152602001908152602001600020805480602002602001604051908101604052809291908181526020016000905b8282101561079c578382906000526020600020906002020160405180604001604052908160008201805461067990611338565b80601f01602080910402602001604051908101604052809291908181526020018280546106a590611338565b80156106f25780601f106106c7576101008083540402835291602001916106f2565b820191906000526020600020905b8154815290600101906020018083116106d557829003601f168201915b5050505050815260200160018201805461070b90611338565b80601f016020809104026020016040519081016040528092919081815260200182805461073790611338565b80156107845780601f1061075957610100808354040283529160200191610784565b820191906000526020600020905b81548152906001019060200180831161076757829003601f168201915b50505050508152505081526020019060010190610646565b505050509050919050565b60018060003373ffffffffffffffffffffffffffffffffffffffff1673ffffffffffffffffffffffffffffffffffffffff16815260200190815260200160002060008373ffffffffffffffffffffffffffffffffffffffff1673ffffffffffffffffffffffffffffffffffffffff16815260200190815260200160002060006101000a81548160ff021916908315150217905550600360003373ffffffffffffffffffffffffffffffffffffffff1673ffffffffffffffffffffffffffffffffffffffff16815260200190815260200160002060008273ffffffffffffffffffffffffffffffffffffffff1673ffffffffffffffffffffffffffffffffffffffff16815260200190815260200160002060009054906101000a900460ff1615610a5a5760005b600260003373ffffffffffffffffffffffffffffffffffffffff1673ffffffffffffffffffffffffffffffffffffffff16815260200190815260200160002080549050811015610a54578173ffffffffffffffffffffffffffffffffffffffff16600260003373ffffffffffffffffffffffffffffffffffffffff1673ffffffffffffffffffffffffffffffffffffffff168152602001908152602001600020828154811061097f5761097e6111db565b5b9060005260206000200160000160009054906101000a900473ffffffffffffffffffffffffffffffffffffffff1673ffffffffffffffffffffffffffffffffffffffff161415610a41576001600260003373ffffffffffffffffffffffffffffffffffffffff1673ffffffffffffffffffffffffffffffffffffffff1681526020019081526020016000208281548110610a1c57610a1b6111db565b5b9060005260206000200160000160146101000a81548160ff0219169083151502179055505b8080610a4c90611243565b9150506108cd565b50610beb565b600260003373ffffffffffffffffffffffffffffffffffffffff1673ffffffffffffffffffffffffffffffffffffffff16815260200190815260200160002060405180604001604052808373ffffffffffffffffffffffffffffffffffffffff168152602001600115158152509080600181540180825580915050600190039060005260206000200160009091909190915060008201518160000160006101000a81548173ffffffffffffffffffffffffffffffffffffffff021916908373ffffffffffffffffffffffffffffffffffffffff16021790555060208201518160000160146101000a81548160ff02191690831515021790555050506001600360003373ffffffffffffffffffffffffffffffffffffffff1673ffffffffffffffffffffffffffffffffffffffff16815260200190815260200160002060008373ffffffffffffffffffffffffffffffffffffffff1673ffffffffffffffffffffffffffffffffffffffff16815260200190815260200160002060006101000a81548160ff0219169083151502179055505b50565b828054610bfa90611338565b90600052602060002090601f016020900481019282610c1c5760008555610c63565b82601f10610c3557805160ff1916838001178555610c63565b82800160010185558215610c63579182015b82811115610c62578251825591602001919060010190610c47565b5b509050610c709190610c74565b5090565b5b80821115610c8d576000816000905550600101610c75565b5090565b6000604051905090565b600080fd5b600080fd5b600073ffffffffffffffffffffffffffffffffffffffff82169050919050565b6000610cd082610ca5565b9050919050565b610ce081610cc5565b8114610ceb57600080fd5b50565b600081359050610cfd81610cd7565b92915050565b600080fd5b600080fd5b6000601f19601f8301169050919050565b7f4e487b7100000000000000000000000000000000000000000000000000000000600052604160045260246000fd5b610d5682610d0d565b810181811067ffffffffffffffff82111715610d7557610d74610d1e565b5b80604052505050565b6000610d88610c91565b9050610d948282610d4d565b919050565b600067ffffffffffffffff821115610db457610db3610d1e565b5b610dbd82610d0d565b9050602081019050919050565b82818337600083830152505050565b6000610dec610de784610d99565b610d7e565b905082815260208101848484011115610e0857610e07610d08565b5b610e13848285610dca565b509392505050565b600082601f830112610e3057610e2f610d03565b5b8135610e40848260208601610dd9565b91505092915050565b600080600060608486031215610e6257610e61610c9b565b5b6000610e7086828701610cee565b935050602084013567ffffffffffffffff811115610e9157610e90610ca0565b5b610e9d86828701610e1b565b925050604084013567ffffffffffffffff811115610ebe57610ebd610ca0565b5b610eca86828701610e1b565b9150509250925092565b600060208284031215610eea57610ee9610c9b565b5b6000610ef884828501610cee565b91505092915050565b600081519050919050565b600082825260208201905092915050565b6000819050602082019050919050565b610f3681610cc5565b82525050565b60008115159050919050565b610f5181610f3c565b82525050565b604082016000820151610f6d6000850182610f2d565b506020820151610f806020850182610f48565b50505050565b6000610f928383610f57565b60408301905092915050565b6000602082019050919050565b6000610fb682610f01565b610fc08185610f0c565b9350610fcb83610f1d565b8060005b83811015610ffc578151610fe38882610f86565b9750610fee83610f9e565b925050600181019050610fcf565b5085935050505092915050565b600060208201905081810360008301526110238184610fab565b905092915050565b600081519050919050565b600082825260208201905092915050565b6000819050602082019050919050565b600081519050919050565b600082825260208201905092915050565b60005b83811015611091578082015181840152602081019050611076565b838111156110a0576000848401525b50505050565b60006110b182611057565b6110bb8185611062565b93506110cb818560208601611073565b6110d481610d0d565b840191505092915050565b600060408301600083015184820360008601526110fc82826110a6565b9150506020830151848203602086015261111682826110a6565b9150508091505092915050565b600061112f83836110df565b905092915050565b6000602082019050919050565b600061114f8261102b565b6111598185611036565b93508360208202850161116b85611047565b8060005b858110156111a757848403895281516111888582611123565b945061119383611137565b925060208a0199505060018101905061116f565b50829750879550505050505092915050565b600060208201905081810360008301526111d38184611144565b905092915050565b7f4e487b7100000000000000000000000000000000000000000000000000000000600052603260045260246000fd5b7f4e487b7100000000000000000000000000000000000000000000000000000000600052601160045260246000fd5b6000819050919050565b600061124e82611239565b91507fffffffffffffffffffffffffffffffffffffffffffffffffffffffffffffffff8214156112815761128061120a565b5b600182019050919050565b600082825260208201905092915050565b7f596f752063616e27742073656500000000000000000000000000000000000000600082015250565b60006112d3600d8361128c565b91506112de8261129d565b602082019050919050565b60006020820190508181036000830152611302816112c6565b9050919050565b7f4e487b7100000000000000000000000000000000000000000000000000000000600052602260045260246000fd5b6000600282049050600182168061135057607f821691505b6020821081141561136457611363611309565b5b5091905056fea2646970667358221220e1f9a146b71371354860ad54117d01c85504a2d6664ea702547ed978d80d192564736f6c63430008090033",
  "linkReferences": {},
  "deployedLinkReferences": {}
}