{
  "_format": "hh-sol-artifact-1",
  "contractName": "Share",
  "sourceName": "contracts/Share.sol",
  "abi": [
    {
      "inputs": [
        {
          "internalType": "address payable",
          "name": "_shareholder",
          "type": "address"
        },
        {
          "internalType": "uint256",
          "name": "_shares",
          "type": "uint256"
        },
        {
          "internalType": "address",
          "name": "_nftAddress",
          "type": "address"
        }
      ],
      "name": "addShareholder",
      "outputs": [],
      "stateMutability": "nonpayable",
      "type": "function"
    },
    {
      "inputs": [
        {
          "internalType": "address",
          "name": "",
          "type": "address"
        }
      ],
      "name": "addressToIndex",
      "outputs": [
        {
          "internalType": "uint256",
          "name": "",
          "type": "uint256"
        }
      ],
      "stateMutability": "view",
      "type": "function"
    },
    {
      "inputs": [],
      "name": "getShareholderCount",
      "outputs": [
        {
          "internalType": "uint256",
          "name": "",
          "type": "uint256"
        }
      ],
      "stateMutability": "view",
      "type": "function"
    },
    {
      "inputs": [],
      "name": "getShareholders",
      "outputs": [
        {
          "components": [
            {
              "internalType": "address",
              "name": "shareholder",
              "type": "address"
            },
            {
              "internalType": "uint256",
              "name": "shares",
              "type": "uint256"
            }
          ],
          "internalType": "struct Share.ShareholderInfo[]",
          "name": "",
          "type": "tuple[]"
        }
      ],
      "stateMutability": "view",
      "type": "function"
    },
    {
      "inputs": [],
      "name": "nextShareholderIndex",
      "outputs": [
        {
          "internalType": "uint256",
          "name": "",
          "type": "uint256"
        }
      ],
      "stateMutability": "view",
      "type": "function"
    },
    {
      "inputs": [],
      "name": "nftAddress",
      "outputs": [
        {
          "internalType": "address",
          "name": "",
          "type": "address"
        }
      ],
      "stateMutability": "view",
      "type": "function"
    },
    {
      "inputs": [
        {
          "internalType": "address",
          "name": "",
          "type": "address"
        },
        {
          "internalType": "address",
          "name": "",
          "type": "address"
        },
        {
          "internalType": "uint256",
          "name": "",
          "type": "uint256"
        },
        {
          "internalType": "bytes",
          "name": "",
          "type": "bytes"
        }
      ],
      "name": "onERC721Received",
      "outputs": [
        {
          "internalType": "bytes4",
          "name": "",
          "type": "bytes4"
        }
      ],
      "stateMutability": "nonpayable",
      "type": "function"
    },
    {
      "inputs": [
        {
          "internalType": "address payable",
          "name": "_shareholder",
          "type": "address"
        }
      ],
      "name": "removeShareholder",
      "outputs": [],
      "stateMutability": "nonpayable",
      "type": "function"
    },
    {
      "inputs": [
        {
          "internalType": "uint256",
          "name": "_tokenId",
          "type": "uint256"
        }
      ],
      "name": "shareNFT",
      "outputs": [],
      "stateMutability": "nonpayable",
      "type": "function"
    },
    {
      "inputs": [
        {
          "internalType": "uint256",
          "name": "",
          "type": "uint256"
        }
      ],
      "name": "shareholders",
      "outputs": [
        {
          "internalType": "address payable",
          "name": "shareholder",
          "type": "address"
        },
        {
          "internalType": "uint256",
          "name": "shares",
          "type": "uint256"
        }
      ],
      "stateMutability": "view",
      "type": "function"
    },
    {
      "inputs": [],
      "name": "totalShares",
      "outputs": [
        {
          "internalType": "uint256",
          "name": "",
          "type": "uint256"
        }
      ],
      "stateMutability": "view",
      "type": "function"
    },
    {
      "inputs": [
        {
          "internalType": "uint256",
          "name": "_tokenId",
          "type": "uint256"
        }
      ],
      "name": "withdrawNFT",
      "outputs": [],
      "stateMutability": "nonpayable",
      "type": "function"
    }
  ],
  "bytecode": "0x608060405234801561001057600080fd5b50611bf7806100206000396000f3fe608060405234801561001057600080fd5b50600436106100b45760003560e01c80639babdad6116100715780639babdad61461017d578063ab377daa14610199578063b7adf0a7146101ca578063d6944f6d146101e6578063ed93f7c714610204578063f667e0aa14610220576100b4565b8063023245d7146100b957806304972881146100d5578063150b7a02146100f35780633a98ef391461012357806341ca641e146101415780635bf8633a1461015f575b600080fd5b6100d360048036038101906100ce9190611087565b610250565b005b6100dd6103df565b6040516100ea91906110c3565b60405180910390f35b61010d60048036038101906101089190611282565b6103f5565b60405161011a9190611340565b60405180910390f35b61012b610409565b60405161013891906110c3565b60405180910390f35b61014961040f565b6040516101569190611457565b60405180910390f35b610167610538565b6040516101749190611488565b60405180910390f35b610197600480360381019061019291906114e1565b61055c565b005b6101b360048036038101906101ae9190611087565b610716565b6040516101c192919061151d565b60405180910390f35b6101e460048036038101906101df9190611087565b61075a565b005b6101ee610b63565b6040516101fb91906110c3565b60405180910390f35b61021e60048036038101906102199190611546565b610b69565b005b61023a60048036038101906102359190611599565b610f9d565b60405161024791906110c3565b60405180910390f35b60008060009054906101000a900473ffffffffffffffffffffffffffffffffffffffff1690503073ffffffffffffffffffffffffffffffffffffffff168173ffffffffffffffffffffffffffffffffffffffff16636352211e846040518263ffffffff1660e01b81526004016102c691906110c3565b60206040518083038186803b1580156102de57600080fd5b505afa1580156102f2573d6000803e3d6000fd5b505050506040513d601f19601f8201168201806040525081019061031691906115db565b73ffffffffffffffffffffffffffffffffffffffff161461036c576040517f08c379a000000000000000000000000000000000000000000000000000000000815260040161036390611665565b60405180910390fd5b8073ffffffffffffffffffffffffffffffffffffffff166342842e0e3033856040518463ffffffff1660e01b81526004016103a993929190611685565b600060405180830381600087803b1580156103c357600080fd5b505af11580156103d7573d6000803e3d6000fd5b505050505050565b600060016002546103f091906116eb565b905090565b600063150b7a0260e01b9050949350505050565b60015481565b60606000600160025461042291906116eb565b67ffffffffffffffff81111561043b5761043a611157565b5b60405190808252806020026020018201604052801561047457816020015b61046161100d565b8152602001906001900390816104595790505b5090506000600190505b60025481101561053057600060036000838152602001908152602001600020905060405180604001604052808260000160009054906101000a900473ffffffffffffffffffffffffffffffffffffffff1673ffffffffffffffffffffffffffffffffffffffff16815260200182600101548152508360018461050091906116eb565b815181106105115761051061171f565b5b60200260200101819052505080806105289061174e565b91505061047e565b508091505090565b60008054906101000a900473ffffffffffffffffffffffffffffffffffffffff1681565b600073ffffffffffffffffffffffffffffffffffffffff168173ffffffffffffffffffffffffffffffffffffffff1614156105cc576040517f08c379a00000000000000000000000000000000000000000000000000000000081526004016105c3906117e3565b60405180910390fd5b6000600460008373ffffffffffffffffffffffffffffffffffffffff1673ffffffffffffffffffffffffffffffffffffffff16815260200190815260200160002054905060008111610653576040517f08c379a000000000000000000000000000000000000000000000000000000000815260040161064a9061184f565b60405180910390fd5b60006003600083815260200190815260200160002060010154905061068381600154610fb590919063ffffffff16565b60018190555060036000838152602001908152602001600020600080820160006101000a81549073ffffffffffffffffffffffffffffffffffffffff021916905560018201600090555050600460008473ffffffffffffffffffffffffffffffffffffffff1673ffffffffffffffffffffffffffffffffffffffff16815260200190815260200160002060009055505050565b60036020528060005260406000206000915090508060000160009054906101000a900473ffffffffffffffffffffffffffffffffffffffff16908060010154905082565b60008060009054906101000a900473ffffffffffffffffffffffffffffffffffffffff1690503373ffffffffffffffffffffffffffffffffffffffff168173ffffffffffffffffffffffffffffffffffffffff16636352211e846040518263ffffffff1660e01b81526004016107d091906110c3565b60206040518083038186803b1580156107e857600080fd5b505afa1580156107fc573d6000803e3d6000fd5b505050506040513d601f19601f8201168201806040525081019061082091906115db565b73ffffffffffffffffffffffffffffffffffffffff1614610876576040517f08c379a000000000000000000000000000000000000000000000000000000000815260040161086d906118e1565b60405180910390fd5b60006003600060018152602001908152602001600020600101549050600081116108d5576040517f08c379a00000000000000000000000000000000000000000000000000000000081526004016108cc9061194d565b60405180910390fd5b8173ffffffffffffffffffffffffffffffffffffffff166342842e0e3330866040518463ffffffff1660e01b815260040161091293929190611685565b600060405180830381600087803b15801561092c57600080fd5b505af1158015610940573d6000803e3d6000fd5b50505050600061095b60015483610fcb90919063ffffffff16565b90506000600190505b600254811015610a425760006003600083815260200190815260200160002060000160009054906101000a900473ffffffffffffffffffffffffffffffffffffffff16905060006003600084815260200190815260200160002060010154905060006109d98286610fe190919063ffffffff16565b90506000811115610a2c578273ffffffffffffffffffffffffffffffffffffffff166108fc829081150290604051600060405180830381858888f19350505050158015610a2a573d6000803e3d6000fd5b505b5050508080610a3a9061174e565b915050610964565b506000610a5a83600154610fb590919063ffffffff16565b905060008473ffffffffffffffffffffffffffffffffffffffff16636352211e876040518263ffffffff1660e01b8152600401610a9791906110c3565b60206040518083038186803b158015610aaf57600080fd5b505afa158015610ac3573d6000803e3d6000fd5b505050506040513d601f19601f82011682018060405250810190610ae791906115db565b90508160036000600181526020019081526020016000206001018190555080600360006001815260200190815260200160002060000160006101000a81548173ffffffffffffffffffffffffffffffffffffffff021916908373ffffffffffffffffffffffffffffffffffffffff160217905550505050505050565b60025481565b600073ffffffffffffffffffffffffffffffffffffffff168373ffffffffffffffffffffffffffffffffffffffff161415610bd9576040517f08c379a0000000000000000000000000000000000000000000000000000000008152600401610bd0906117e3565b60405180910390fd5b60008211610c1c576040517f08c379a0000000000000000000000000000000000000000000000000000000008152600401610c13906119b9565b60405180910390fd5b600073ffffffffffffffffffffffffffffffffffffffff168173ffffffffffffffffffffffffffffffffffffffff161415610c8c576040517f08c379a0000000000000000000000000000000000000000000000000000000008152600401610c8390611a25565b60405180910390fd5b600073ffffffffffffffffffffffffffffffffffffffff1660008054906101000a900473ffffffffffffffffffffffffffffffffffffffff1673ffffffffffffffffffffffffffffffffffffffff161415610d2657806000806101000a81548173ffffffffffffffffffffffffffffffffffffffff021916908373ffffffffffffffffffffffffffffffffffffffff160217905550610db5565b8073ffffffffffffffffffffffffffffffffffffffff1660008054906101000a900473ffffffffffffffffffffffffffffffffffffffff1673ffffffffffffffffffffffffffffffffffffffff1614610db4576040517f08c379a0000000000000000000000000000000000000000000000000000000008152600401610dab90611a91565b60405180910390fd5b5b6000600460008573ffffffffffffffffffffffffffffffffffffffff1673ffffffffffffffffffffffffffffffffffffffff168152602001908152602001600020541415610ef457600254600460008573ffffffffffffffffffffffffffffffffffffffff1673ffffffffffffffffffffffffffffffffffffffff1681526020019081526020016000208190555060405180604001604052808473ffffffffffffffffffffffffffffffffffffffff1681526020018381525060036000600254815260200190815260200160002060008201518160000160006101000a81548173ffffffffffffffffffffffffffffffffffffffff021916908373ffffffffffffffffffffffffffffffffffffffff1602179055506020820151816001015590505060026000815480929190610eea9061174e565b9190505550610f7d565b6000600460008573ffffffffffffffffffffffffffffffffffffffff1673ffffffffffffffffffffffffffffffffffffffff168152602001908152602001600020549050610f61836003600084815260200190815260200160002060010154610ff790919063ffffffff16565b6003600083815260200190815260200160002060010181905550505b610f9282600154610ff790919063ffffffff16565b600181905550505050565b60046020528060005260406000206000915090505481565b60008183610fc391906116eb565b905092915050565b60008183610fd99190611ae0565b905092915050565b60008183610fef9190611b11565b905092915050565b600081836110059190611b6b565b905092915050565b6040518060400160405280600073ffffffffffffffffffffffffffffffffffffffff168152602001600081525090565b6000604051905090565b600080fd5b600080fd5b6000819050919050565b61106481611051565b811461106f57600080fd5b50565b6000813590506110818161105b565b92915050565b60006020828403121561109d5761109c611047565b5b60006110ab84828501611072565b91505092915050565b6110bd81611051565b82525050565b60006020820190506110d860008301846110b4565b92915050565b600073ffffffffffffffffffffffffffffffffffffffff82169050919050565b6000611109826110de565b9050919050565b611119816110fe565b811461112457600080fd5b50565b60008135905061113681611110565b92915050565b600080fd5b600080fd5b6000601f19601f8301169050919050565b7f4e487b7100000000000000000000000000000000000000000000000000000000600052604160045260246000fd5b61118f82611146565b810181811067ffffffffffffffff821117156111ae576111ad611157565b5b80604052505050565b60006111c161103d565b90506111cd8282611186565b919050565b600067ffffffffffffffff8211156111ed576111ec611157565b5b6111f682611146565b9050602081019050919050565b82818337600083830152505050565b6000611225611220846111d2565b6111b7565b90508281526020810184848401111561124157611240611141565b5b61124c848285611203565b509392505050565b600082601f8301126112695761126861113c565b5b8135611279848260208601611212565b91505092915050565b6000806000806080858703121561129c5761129b611047565b5b60006112aa87828801611127565b94505060206112bb87828801611127565b93505060406112cc87828801611072565b925050606085013567ffffffffffffffff8111156112ed576112ec61104c565b5b6112f987828801611254565b91505092959194509250565b60007fffffffff0000000000000000000000000000000000000000000000000000000082169050919050565b61133a81611305565b82525050565b60006020820190506113556000830184611331565b92915050565b600081519050919050565b600082825260208201905092915050565b6000819050602082019050919050565b611390816110fe565b82525050565b61139f81611051565b82525050565b6040820160008201516113bb6000850182611387565b5060208201516113ce6020850182611396565b50505050565b60006113e083836113a5565b60408301905092915050565b6000602082019050919050565b60006114048261135b565b61140e8185611366565b935061141983611377565b8060005b8381101561144a57815161143188826113d4565b975061143c836113ec565b92505060018101905061141d565b5085935050505092915050565b6000602082019050818103600083015261147181846113f9565b905092915050565b611482816110fe565b82525050565b600060208201905061149d6000830184611479565b92915050565b60006114ae826110de565b9050919050565b6114be816114a3565b81146114c957600080fd5b50565b6000813590506114db816114b5565b92915050565b6000602082840312156114f7576114f6611047565b5b6000611505848285016114cc565b91505092915050565b611517816114a3565b82525050565b6000604082019050611532600083018561150e565b61153f60208301846110b4565b9392505050565b60008060006060848603121561155f5761155e611047565b5b600061156d868287016114cc565b935050602061157e86828701611072565b925050604061158f86828701611127565b9150509250925092565b6000602082840312156115af576115ae611047565b5b60006115bd84828501611127565b91505092915050565b6000815190506115d581611110565b92915050565b6000602082840312156115f1576115f0611047565b5b60006115ff848285016115c6565b91505092915050565b600082825260208201905092915050565b7f436f6e747261637420646f6573206e6f74206f776e20746865204e4654000000600082015250565b600061164f601d83611608565b915061165a82611619565b602082019050919050565b6000602082019050818103600083015261167e81611642565b9050919050565b600060608201905061169a6000830186611479565b6116a76020830185611479565b6116b460408301846110b4565b949350505050565b7f4e487b7100000000000000000000000000000000000000000000000000000000600052601160045260246000fd5b60006116f682611051565b915061170183611051565b925082821015611714576117136116bc565b5b828203905092915050565b7f4e487b7100000000000000000000000000000000000000000000000000000000600052603260045260246000fd5b600061175982611051565b91507fffffffffffffffffffffffffffffffffffffffffffffffffffffffffffffffff82141561178c5761178b6116bc565b5b600182019050919050565b7f496e76616c6964207368617265686f6c64657220616464726573730000000000600082015250565b60006117cd601b83611608565b91506117d882611797565b602082019050919050565b600060208201905081810360008301526117fc816117c0565b9050919050565b7f5368617265686f6c64657220646f6573206e6f74206578697374000000000000600082015250565b6000611839601a83611608565b915061184482611803565b602082019050919050565b600060208201905081810360008301526118688161182c565b9050919050565b7f43616c6c6572206973206e6f7420746865206f776e6572206f6620746865204e60008201527f4654000000000000000000000000000000000000000000000000000000000000602082015250565b60006118cb602283611608565b91506118d68261186f565b604082019050919050565b600060208201905081810360008301526118fa816118be565b9050919050565b7f4e6f207368617265686f6c646572732061646465640000000000000000000000600082015250565b6000611937601583611608565b915061194282611901565b602082019050919050565b600060208201905081810360008301526119668161192a565b9050919050565b7f496e76616c69642073686172652076616c756500000000000000000000000000600082015250565b60006119a3601383611608565b91506119ae8261196d565b602082019050919050565b600060208201905081810360008301526119d281611996565b9050919050565b7f496e76616c6964204e4654206164647265737300000000000000000000000000600082015250565b6000611a0f601383611608565b9150611a1a826119d9565b602082019050919050565b60006020820190508181036000830152611a3e81611a02565b9050919050565b7f4e465420616464726573732063616e6e6f74206265206368616e676564000000600082015250565b6000611a7b601d83611608565b9150611a8682611a45565b602082019050919050565b60006020820190508181036000830152611aaa81611a6e565b9050919050565b7f4e487b7100000000000000000000000000000000000000000000000000000000600052601260045260246000fd5b6000611aeb82611051565b9150611af683611051565b925082611b0657611b05611ab1565b5b828204905092915050565b6000611b1c82611051565b9150611b2783611051565b9250817fffffffffffffffffffffffffffffffffffffffffffffffffffffffffffffffff0483118215151615611b6057611b5f6116bc565b5b828202905092915050565b6000611b7682611051565b9150611b8183611051565b9250827fffffffffffffffffffffffffffffffffffffffffffffffffffffffffffffffff03821115611bb657611bb56116bc565b5b82820190509291505056fea2646970667358221220c94a9188eda3bf2fe9aca298d9619b25edebfa94d492d7a9db27640bf049c87e64736f6c63430008080033",
  "linkReferences": {},
  "deployedLinkReferences": {}
}